:020000040000FA
:0400000012EF1DF0EE
:103A0A0019EC1DF0C580120019EC1DF0C5841200D6
:103A1A0019EC1DF002C0C9FF12001A6A196A000ED9
:103A2A00F86E000134EF1EF0C7B4FED7C5CF01F01F
:103A3A001F0E0116D8B41200F7D719EC1DF0C5866F
:103A4A0019EC1DF0C9CF04F0056A19EC1DF0C59AEE
:103A5A00C58804C002F005C003F012000150030239
:103A6A00F3CF05F0F4CF06F001500402F350062616
:103A7A0002500302F350062605C001F006C002F008
:103A8A001200580ED36E94909492949494969498AB
:103A9A00949A949C280EC66E000EC56E090EC86EC6
:103AAA00000EC76E8B94410E016EEE0EE82EFED705
:103ABA00012EFCD700D08B84120005EC1DF0000EFD
:103ACA00036E900E026E0DEC1DF0000E036E000EDA
:103ADA00026E0DEC1DF005EC1DF0000E036E910E4A
:103AEA00026E0DEC1DF022EC1DF002C019F003C0AD
:103AFA001AF009EC1DF01200000E066E02AE06D096
:103B0A00016C021ED8B0022A010E066E04AE04D061
:103B1A00036C041ED8B0042A03500410D8B418D079
:103B2A00010E056E04D0D89003360436052A04AE79
:103B3A00FAD70350015C04500258D8A004D00350AD
:103B4A00015E0450025AD89004320332052EF1D78E
:103B5A000650D8B404D0016C021ED8B0022A01C0A3
:103B6A0001F002C002F0120013D0600E0FD0DA0E7C
:103B7A000DD0F20E0BD0660E09D0B60E07D0BE0ECF
:103B8A0005D0E00E03D0FE0E01D0FC0E056E23D048
:103B9A0001C003F002C004F00450000AD8A4F5D70B
:103BAA000350010AD8B4E1D7030AD8B4E0D7010A0E
:103BBA00D8B4DFD7070AD8B4DED7010AD8B4DDD71C
:103BCA00030AD8B4DCD7010AD8B4DBD70F0AD8B4B1
:103BDA00DAD7010ADAD705501200000E0C6E0AAEC7
:103BEA0006D0096C0A1ED8B00A2A010E0C6E08AE5D
:103BFA0006D0076C081ED8B0082A010E0C1A000E4F
:103C0A000E6E000E0D6E09500A10D8B41CD0010EAB
:103C1A000B6E04D0D89009360A360B2A0AAEFAD7A8
:103C2A00D8900D360E360950075C0A500858D8A0AD
:103C3A0005D00950075E0A50085A0D80D8900A32FA
:103C4A0009320B2EEDD70C50D8B404D00D6C0E1ED1
:103C5A00D8B00E2A0DC007F00EC008F01200020EEE
:103C6A00106E860E0F6E990EE82EFED70F2EFCD719
:103C7A00102EFAD700F046EC1DF062EC1DF019C0C8
:103C8A0001F01AC002F0000E046E090E036E33EC46
:103C9A001DF001C007F002C008F0000E0A6E050E02
:103CAA00096EF2EC1DF0200E0724176E000E082094
:103CBA00186E17C007F018C008F0000E0A6E0A0E38
:103CCA00096EF2EC1DF007C011F008C012F017C01F
:103CDA0001F018C002F0000E046E0A0E036E81ECA9
:103CEA001DF001C013F002C014F011C001F012C09F
:103CFA0002F0B9EC1DF0156E15C001F0026A000E53
:103D0A00046E010E036EA6EC1EF013C001F014C07F
:103D1A0002F0B9EC1DF0166E16C001F0026A000E30
:103D2A00046E020E036EA6EC1EF0060E106E130E43
:103D3A000F6EAE0EE82EFED70F2EFCD7102EFAD736
:103D4A009CD703040410D8A4ACD08B968B9001C0E6
:103D5A0005F002C006F0070E076ED890063205324B
:103D6A00072EFBD7010E0516053A05468B50051896
:103D7A00DF0B05188B6E8B808B9001C005F002C09B
:103D8A0006F0060E076ED89006320532072EFBD7CC
:103D9A00010E0516053A05468B500518DF0B051866
:103DAA008B6E8B808B9001C005F002C006F0050E69
:103DBA00076ED89006320532072EFBD7010E05167C
:103DCA00053A05468B500518DF0B05188B6E8B805C
:103DDA008B9001C005F002C006F0040E076ED89061
:103DEA0006320532072EFBD7010E0516053A05469F
:103DFA008B500518DF0B05188B6E8B808B9001C0DA
:103E0A0005F002C006F0D89006320532D890063284
:103E1A000532D89006320532010E0516053A0546D6
:103E2A008B500518DF0B05188B6E8B808B9001C0A9
:103E3A0005F002C006F0D89006320532D890063254
:103E4A000532010E0516053A05468B500518DF0B9B
:103E5A0005188B6E8B808B90D8900230066E0130DD
:103E6A00056E010E0516053A05468B500518DF0B3F
:103E7A0005188B6E8B808B9001C005F0010E05161C
:103E8A00053A05468B500518DF0B05188B6E8B809B
:103E9A001A0E056EF80EE82EFED7052EFCD700D0B6
:103EAA008B86020E03180410D8A412008B9C8B92E6
:103EBA0001C005F002C006F0070E076ED890063260
:103ECA000532072EFBD7010E0516053A8B50051849
:103EDA00EF0B05188B6E8B828B9201C005F002C026
:103EEA0006F0060E076ED89006320532072EFBD76B
:103EFA00010E0516053A8B500518EF0B05188B6E47
:103F0A008B828B9201C005F002C006F0050E076E87
:103F1A00D89006320532072EFBD7010E0516053A50
:103F2A008B500518EF0B05188B6E8B828B9201C094
:103F3A0005F002C006F0040E076ED890063205326C
:103F4A00072EFBD7010E0516053A8B500518EF0B05
:103F5A0005188B6E8B828B9201C005F002C006F0A9
:103F6A00D89006320532D89006320532D8900632F9
:103F7A000532010E0516053A8B500518EF0B051888
:103F8A008B6E8B828B9201C005F002C006F0D8902E
:103F9A0006320532D89006320532010E0516053A68
:103FAA008B500518EF0B05188B6E8B828B92D8906D
:103FBA000230066E0130056E010E0516053A8B5069
:103FCA000518EF0B05188B6E8B828B9201C005F0DA
:103FDA00010E0516053A8B500518EF0B05188B6E66
:103FEA008B821A0E056EF80EE82EFED7052EFCD728
:063FFA0000D08B8C1200C8
:020000040020DA
:08000000FFFFFFFFFFFFFFFF00
:020000040030CA
:0E0000000028061EFF8089FF03C003E00340B6
:00000001FF
